{
  "contractName": "Auction",
  "abi": [
    {
      "inputs": [
        {
          "internalType": "uint256",
          "name": "bp",
          "type": "uint256"
        },
        {
          "internalType": "address",
          "name": "admin",
          "type": "address"
        }
      ],
      "stateMutability": "nonpayable",
      "type": "constructor"
    },
    {
      "inputs": [],
      "name": "auctioner",
      "outputs": [
        {
          "internalType": "address",
          "name": "",
          "type": "address"
        }
      ],
      "stateMutability": "view",
      "type": "function"
    },
    {
      "inputs": [],
      "name": "baseprice",
      "outputs": [
        {
          "internalType": "uint256",
          "name": "",
          "type": "uint256"
        }
      ],
      "stateMutability": "view",
      "type": "function"
    },
    {
      "inputs": [],
      "name": "buyers_count",
      "outputs": [
        {
          "internalType": "uint256",
          "name": "",
          "type": "uint256"
        }
      ],
      "stateMutability": "view",
      "type": "function"
    },
    {
      "inputs": [
        {
          "internalType": "address",
          "name": "",
          "type": "address"
        }
      ],
      "name": "participants",
      "outputs": [
        {
          "internalType": "uint256",
          "name": "bid",
          "type": "uint256"
        },
        {
          "internalType": "bool",
          "name": "placedbid",
          "type": "bool"
        },
        {
          "internalType": "bytes32",
          "name": "encryptbid",
          "type": "bytes32"
        },
        {
          "internalType": "bool",
          "name": "revealedbid",
          "type": "bool"
        }
      ],
      "stateMutability": "view",
      "type": "function"
    },
    {
      "inputs": [],
      "name": "topbid",
      "outputs": [
        {
          "internalType": "uint256",
          "name": "",
          "type": "uint256"
        }
      ],
      "stateMutability": "view",
      "type": "function"
    },
    {
      "inputs": [],
      "name": "topbidder",
      "outputs": [
        {
          "internalType": "address",
          "name": "",
          "type": "address"
        }
      ],
      "stateMutability": "view",
      "type": "function"
    },
    {
      "inputs": [
        {
          "internalType": "bytes32",
          "name": "enc_msg",
          "type": "bytes32"
        }
      ],
      "name": "placeBid",
      "outputs": [],
      "stateMutability": "nonpayable",
      "type": "function"
    },
    {
      "inputs": [],
      "name": "closeAuction",
      "outputs": [],
      "stateMutability": "nonpayable",
      "type": "function"
    },
    {
      "inputs": [
        {
          "internalType": "string",
          "name": "key",
          "type": "string"
        },
        {
          "internalType": "uint256",
          "name": "bid",
          "type": "uint256"
        },
        {
          "internalType": "string",
          "name": "company",
          "type": "string"
        }
      ],
      "name": "revealBids",
      "outputs": [],
      "stateMutability": "nonpayable",
      "type": "function"
    },
    {
      "inputs": [],
      "name": "stopAll",
      "outputs": [],
      "stateMutability": "nonpayable",
      "type": "function"
    }
  ],
  "bytecode": "0x60806040523480156200001157600080fd5b5060405162001170380380620011708339818101604052810190620000379190620000f9565b80600560006101000a81548173ffffffffffffffffffffffffffffffffffffffff021916908373ffffffffffffffffffffffffffffffffffffffff1602179055506000600181905550600060038190555060016000806101000a81548160ff02191690831515021790555060008060016101000a81548160ff021916908315150217905550816004819055505050620001ac565b600081519050620000dc8162000178565b92915050565b600081519050620000f38162000192565b92915050565b600080604083850312156200010d57600080fd5b60006200011d85828601620000e2565b92505060206200013085828601620000cb565b9150509250929050565b600062000147826200014e565b9050919050565b600073ffffffffffffffffffffffffffffffffffffffff82169050919050565b6000819050919050565b62000183816200013a565b81146200018f57600080fd5b50565b6200019d816200016e565b8114620001a957600080fd5b50565b610fb480620001bc6000396000f3fe608060405234801561001057600080fd5b506004361061009e5760003560e01c806364df61f81161006657806364df61f8146101385780637f29f87414610154578063ab30e01e14610172578063f0881ae614610190578063f3fb05df1461019a5761009e565b806309e69ede146100a3578063378252f2146100d6578063480a434d146100e0578063497ecfc5146100fe578063505e17b81461011a575b600080fd5b6100bd60048036038101906100b89190610a54565b6101b8565b6040516100cd9493929190610c10565b60405180910390f35b6100de610202565b005b6100e8610278565b6040516100f59190610bf5565b60405180910390f35b61011860048036038101906101139190610a7d565b61027e565b005b6101226103ac565b60405161012f9190610bf5565b60405180910390f35b610152600480360381019061014d9190610aa6565b6103b2565b005b61015c61070f565b6040516101699190610bf5565b60405180910390f35b61017a610715565b6040516101879190610bda565b60405180910390f35b61019861073b565b005b6101a26107b2565b6040516101af9190610bda565b60405180910390f35b60066020528060005260406000206000915090508060000154908060010160009054906101000a900460ff16908060020154908060030160009054906101000a900460ff16905084565b600560009054906101000a900473ffffffffffffffffffffffffffffffffffffffff1673ffffffffffffffffffffffffffffffffffffffff163373ffffffffffffffffffffffffffffffffffffffff161461025c57600080fd5b60008060006101000a81548160ff021916908315150217905550565b60045481565b60008054906101000a900460ff1661029557600080fd5b600660003373ffffffffffffffffffffffffffffffffffffffff1673ffffffffffffffffffffffffffffffffffffffff16815260200190815260200160002060010160009054906101000a900460ff16156102ef57600080fd5b80600660003373ffffffffffffffffffffffffffffffffffffffff1673ffffffffffffffffffffffffffffffffffffffff168152602001908152602001600020600201819055506001600660003373ffffffffffffffffffffffffffffffffffffffff1673ffffffffffffffffffffffffffffffffffffffff16815260200190815260200160002060010160006101000a81548160ff021916908315150217905550600160008154809291906103a490610e63565b919050555050565b60035481565b60008054906101000a900460ff16156103ca57600080fd5b600060019054906101000a900460ff16156103e457600080fd5b600660003373ffffffffffffffffffffffffffffffffffffffff1673ffffffffffffffffffffffffffffffffffffffff16815260200190815260200160002060010160009054906101000a900460ff1661043d57600080fd5b600660003373ffffffffffffffffffffffffffffffffffffffff1673ffffffffffffffffffffffffffffffffffffffff16815260200190815260200160002060030160009054906101000a900460ff161561049757600080fd5b60006104a2836107d8565b905060008482846040516020016104bb93929190610ba9565b60405160208183030381529060405290506000816040516020016104df9190610b92565b604051602081830303815290604052805190602001209050600660003373ffffffffffffffffffffffffffffffffffffffff1673ffffffffffffffffffffffffffffffffffffffff168152602001908152602001600020600201548114156105e45784600660003373ffffffffffffffffffffffffffffffffffffffff1673ffffffffffffffffffffffffffffffffffffffff168152602001908152602001600020600001819055506001600660003373ffffffffffffffffffffffffffffffffffffffff1673ffffffffffffffffffffffffffffffffffffffff16815260200190815260200160002060030160006101000a81548160ff0219169083151502179055505b600454600660003373ffffffffffffffffffffffffffffffffffffffff1673ffffffffffffffffffffffffffffffffffffffff168152602001908152602001600020600001541061070757600354600660003373ffffffffffffffffffffffffffffffffffffffff1673ffffffffffffffffffffffffffffffffffffffff16815260200190815260200160002060000154111561070657600660003373ffffffffffffffffffffffffffffffffffffffff1673ffffffffffffffffffffffffffffffffffffffff1681526020019081526020016000206000015460038190555033600260006101000a81548173ffffffffffffffffffffffffffffffffffffffff021916908373ffffffffffffffffffffffffffffffffffffffff1602179055505b5b505050505050565b60015481565b600260009054906101000a900473ffffffffffffffffffffffffffffffffffffffff1681565b600560009054906101000a900473ffffffffffffffffffffffffffffffffffffffff1673ffffffffffffffffffffffffffffffffffffffff163373ffffffffffffffffffffffffffffffffffffffff161461079557600080fd5b6001600060016101000a81548160ff021916908315150217905550565b600560009054906101000a900473ffffffffffffffffffffffffffffffffffffffff1681565b60606000821415610820576040518060400160405280600181526020017f300000000000000000000000000000000000000000000000000000000000000081525090506109a8565b600082905060005b6000821461085257808061083b90610e63565b915050600a8261084b9190610d03565b9150610828565b60008167ffffffffffffffff811115610894577f4e487b7100000000000000000000000000000000000000000000000000000000600052604160045260246000fd5b6040519080825280601f01601f1916602001820160405280156108c65781602001600182028036833780820191505090505b50905060008290505b600086146109a0576001816108e49190610d8e565b90506000600a80886108f69190610d03565b6109009190610d34565b8761090b9190610d8e565b60306109179190610ccc565b905060008160f81b90508084848151811061095b577f4e487b7100000000000000000000000000000000000000000000000000000000600052603260045260246000fd5b60200101907effffffffffffffffffffffffffffffffffffffffffffffffffffffffffffff1916908160001a905350600a886109979190610d03565b975050506108cf565b819450505050505b919050565b60006109c06109bb84610c86565b610c55565b9050828152602081018484840111156109d857600080fd5b6109e3848285610e21565b509392505050565b6000813590506109fa81610f39565b92915050565b600081359050610a0f81610f50565b92915050565b600082601f830112610a2657600080fd5b8135610a368482602086016109ad565b91505092915050565b600081359050610a4e81610f67565b92915050565b600060208284031215610a6657600080fd5b6000610a74848285016109eb565b91505092915050565b600060208284031215610a8f57600080fd5b6000610a9d84828501610a00565b91505092915050565b600080600060608486031215610abb57600080fd5b600084013567ffffffffffffffff811115610ad557600080fd5b610ae186828701610a15565b9350506020610af286828701610a3f565b925050604084013567ffffffffffffffff811115610b0f57600080fd5b610b1b86828701610a15565b9150509250925092565b610b2e81610dc2565b82525050565b610b3d81610dd4565b82525050565b610b4c81610de0565b82525050565b6000610b5d82610cb6565b610b678185610cc1565b9350610b77818560208601610e30565b80840191505092915050565b610b8c81610e0a565b82525050565b6000610b9e8284610b52565b915081905092915050565b6000610bb58286610b52565b9150610bc18285610b52565b9150610bcd8284610b52565b9150819050949350505050565b6000602082019050610bef6000830184610b25565b92915050565b6000602082019050610c0a6000830184610b83565b92915050565b6000608082019050610c256000830187610b83565b610c326020830186610b34565b610c3f6040830185610b43565b610c4c6060830184610b34565b95945050505050565b6000604051905081810181811067ffffffffffffffff82111715610c7c57610c7b610f0a565b5b8060405250919050565b600067ffffffffffffffff821115610ca157610ca0610f0a565b5b601f19601f8301169050602081019050919050565b600081519050919050565b600081905092915050565b6000610cd782610e14565b9150610ce283610e14565b92508260ff03821115610cf857610cf7610eac565b5b828201905092915050565b6000610d0e82610e0a565b9150610d1983610e0a565b925082610d2957610d28610edb565b5b828204905092915050565b6000610d3f82610e0a565b9150610d4a83610e0a565b9250817fffffffffffffffffffffffffffffffffffffffffffffffffffffffffffffffff0483118215151615610d8357610d82610eac565b5b828202905092915050565b6000610d9982610e0a565b9150610da483610e0a565b925082821015610db757610db6610eac565b5b828203905092915050565b6000610dcd82610dea565b9050919050565b60008115159050919050565b6000819050919050565b600073ffffffffffffffffffffffffffffffffffffffff82169050919050565b6000819050919050565b600060ff82169050919050565b82818337600083830152505050565b60005b83811015610e4e578082015181840152602081019050610e33565b83811115610e5d576000848401525b50505050565b6000610e6e82610e0a565b91507fffffffffffffffffffffffffffffffffffffffffffffffffffffffffffffffff821415610ea157610ea0610eac565b5b600182019050919050565b7f4e487b7100000000000000000000000000000000000000000000000000000000600052601160045260246000fd5b7f4e487b7100000000000000000000000000000000000000000000000000000000600052601260045260246000fd5b7f4e487b7100000000000000000000000000000000000000000000000000000000600052604160045260246000fd5b610f4281610dc2565b8114610f4d57600080fd5b50565b610f5981610de0565b8114610f6457600080fd5b50565b610f7081610e0a565b8114610f7b57600080fd5b5056fea264697066735822122021a736a5fcac887e7867a578e701ca630cb48dbf501cceeb5d90072590c2535264736f6c63430008000033",
  "immutableReferences": {},
  "source": "pragma solidity ^0.8.0;\n\ncontract AuctionManager{\n    address[] public auctions;\n\n    function createAuction(uint bp) public {\n        address newAuction = address(new Auction(bp,msg.sender));\n        auctions.push(newAuction);\n    }\n\n    function getAuctions() public view returns (address[] memory) {\n        return auctions;\n    }\n}\n\ncontract Auction {\n    struct participant{\n        uint bid;\n        bool placedbid;\n        bytes32 encryptbid;\n        bool revealedbid;\n    }\n    bool auctioning;\n    bool archive;\n    uint public buyers_count;\n    address public topbidder;\n    uint public topbid;\n    uint public baseprice;\n    address public auctioner;\n    mapping(address => participant) public participants;\n\n    modifier restricted() {\n        require(msg.sender == auctioner);\n        _;\n    }\n\n    constructor(uint bp, address admin) {\n        auctioner = admin;\n        buyers_count = 0;\n        topbid = 0;\n        auctioning = true;\n        archive = false;\n        baseprice = bp;\n    }\n\n    function placeBid(bytes32 enc_msg) public {\n        require(auctioning);\n        require(!participants[msg.sender].placedbid);\n        participants[msg.sender].encryptbid = enc_msg;\n        participants[msg.sender].placedbid = true;\n        buyers_count++;\n    }\n\n    function closeAuction() public restricted{\n        auctioning = false;\n    }\n\n    function revealBids(string memory key, uint bid, string memory company) public{\n        require(!auctioning);\n        require(!archive);\n        require(participants[msg.sender].placedbid);\n        require(!participants[msg.sender].revealedbid);\n        string memory sn = uint2str(bid);\n        string memory str = string(abi.encodePacked(key, sn, company));\n        bytes32 hash = keccak256(abi.encodePacked(str));\n        if(hash == participants[msg.sender].encryptbid){\n            participants[msg.sender].bid = bid;\n            participants[msg.sender].revealedbid = true;\n        }\n        if(participants[msg.sender].bid >= baseprice){\n            if(participants[msg.sender].bid > topbid){\n                topbid = participants[msg.sender].bid;\n                topbidder = msg.sender;\n            }\n        }\n    }\n\n    function stopAll() public restricted{\n        archive = true;\n    }\n\n    function uint2str(uint _i) internal pure returns (string memory _uintAsString) {\n        if (_i == 0) {\n            return \"0\";\n        }\n        uint j = _i;\n        uint len;\n        while (j != 0) {\n            len++;\n            j /= 10;\n        }\n        bytes memory bstr = new bytes(len);\n        uint k = len;\n        while (_i != 0) {\n            k = k-1;\n            uint8 temp = (48 + uint8(_i - _i / 10 * 10));\n            bytes1 b1 = bytes1(temp);\n            bstr[k] = b1;\n            _i /= 10;\n        }\n        return string(bstr);\n    }\n}\n",
  "sourcePath": "/home/somesh/projects/spectrum-mgmt/contracts/Auction.sol",
  "compiler": {
    "name": "solc",
    "version": "0.8.0+commit.c7dfd78e.Emscripten.clang"
  },
  "schemaVersion": "3.4.1",
  "updatedAt": "2021-09-20T10:47:50.619Z",
  "devdoc": {
    "kind": "dev",
    "methods": {},
    "version": 1
  },
  "userdoc": {
    "kind": "user",
    "methods": {},
    "version": 1
  }
}